:020000040000FA
:100000000C9434000C9496010C946F010C945100E4
:100010000C9451000C9451000C9451000C9451001C
:100020000C9451000C9451000C9451000C9451000C
:100030000C9451000C9451000C9451000C945100FC
:100040000C9425010C9451000C9451000C94510017
:100050000C9451000C9451000C9451000C945100DC
:100060000C9451000C94510011241FBECFEFD8E026
:10007000DEBFCDBF11E0A0E0B1E0E8E3F4E002C0F4
:1000800005900D92A430B107D9F721E0A4E0B1E0CA
:1000900001C01D92AE30B207E1F70E94BD010C9481
:1000A0001A020C94000056D020985398549818992E
:1000B00005D04B991CD04C9933D00895EEECF0E06C
:1000C0002591203069F055D02093C600F9CF4465C2
:1000D0006C61792032207365636F6E64730A0D0062
:1000E00065D04CD0D0910401D13009F3F9CFE0E0D4
:1000F000F1E02591203069F03CD02093C600F9CF83
:1001000044656C61792033207365636F6E64730A94
:100110000D004CD03BD0D0910401D13041F2F9CF49
:10012000E2E3F1E02591203069F023D02093C6006E
:10013000F9CF44656C61792034207365636F6E6418
:10014000730A0D0033D02AD0D0910401D13009F0C8
:10015000F9CFADCF88278093C0008093C50087E694
:100160008093C40088E18093C10086E08093C20040
:1001700008951091C00015FFFCCF089545E8409305
:1001800085004EEE409384004CD0089548E440939F
:10019000850045EE4093840044D008954BE04093A1
:1001A00085004CED409384003CD00895219A569AE6
:1001B000579AA2E0EAECF1E0859124D05F9A27D02B
:1001C00005D0AA955F98C1F70895285A43E0299A67
:1001D00005D029981CD04A95D1F70895552756BDCA
:1001E000582F57BD5CE055BD51E055BB55B351FF8D
:1001F000FDCF552755BD52E055BB50E054BD55BD10
:1002000010E008954BE844BD43E045BD08955FEF1D
:100210006FEF7FE07A95F1F76A95D9F75A95C1F7B4
:10022000089544274093800045E04093810046B301
:1002300040FFFDCF41E046BB442740938100089535
:1002400081E080930401089508951F920F920FB6E4
:100250000F9211242F933F938F939F93AF93BF934C
:1002600080910A0190910B01A0910C01B0910D01B8
:100270003091090123E0230F2D3758F50196A11D78
:10028000B11D2093090180930A0190930B01A09363
:100290000C01B0930D018091050190910601A09190
:1002A0000701B09108010196A11DB11D80930501C0
:1002B00090930601A0930701B0930801BF91AF91FD
:1002C0009F918F913F912F910F900FBE0F901F9094
:1002D000189526E8230F0296A11DB11DD2CF1F92BB
:1002E0000F920FB60F9211242F933F934F935F936A
:1002F0006F937F938F939F93AF93BF93EF93FF93EE
:10030000E0910201F09103010995FF91EF91BF91F6
:10031000AF919F918F917F916F915F914F913F919D
:100320002F910F900FBE0F901F9018951F920F9254
:100330000FB60F9211242F933F934F935F936F93B8
:100340007F938F939F93AF93BF93EF93FF93E0912E
:100350000001F09101010995FF91EF91BF91AF91DB
:100360009F918F917F916F915F914F913F912F91CD
:100370000F900FBE0F901F901895789484B58260EF
:1003800084BD84B5816084BD85B5826085BD85B539
:10039000816085BD80916E00816080936E001092B7
:1003A0008100809181008260809381008091810032
:1003B00081608093810080918000816080938000C3
:1003C0008091B10084608093B1008091B000816021
:1003D0008093B00080917A00846080937A0080914D
:1003E0007A00826080937A0080917A0081608093A5
:1003F0007A0080917A00806880937A001092C10020
:1004000052988BB180E291E09093010180930001BA
:10041000809169008C7F826080936900E89AC0E0D7
:10042000D0E00E945300109204012097D1F30E9463
:0C0430000000F7CFF894FFCF2401240156
:107E0000112484B714BE81FFF0D085E080938100F7
:107E100082E08093C00088E18093C10086E0809377
:107E2000C20080E18093C4008EE0C9D0259A86E02C
:107E300020E33CEF91E0309385002093840096BBD3
:107E4000B09BFECF1D9AA8958150A9F7CC24DD24C4
:107E500088248394B5E0AB2EA1E19A2EF3E0BF2EE7
:107E6000A2D0813461F49FD0082FAFD0023811F036
:107E7000013811F484E001C083E08DD089C08234E0
:107E800011F484E103C0853419F485E0A6D080C0E4
:107E9000853579F488D0E82EFF2485D0082F10E0AE
:107EA000102F00270E291F29000F111F8ED06801E7
:107EB0006FC0863521F484E090D080E0DECF843638
:107EC00009F040C070D06FD0082F6DD080E0C81688
:107ED00080E7D80618F4F601B7BEE895C0E0D1E017
:107EE00062D089930C17E1F7F0E0CF16F0E7DF06D8
:107EF00018F0F601B7BEE89568D007B600FCFDCFD4
:107F0000A601A0E0B1E02C9130E011968C91119780
:107F100090E0982F8827822B932B1296FA010C0160
:107F200087BEE89511244E5F5F4FF1E0A038BF0790
:107F300051F7F601A7BEE89507B600FCFDCF97BE46
:107F4000E89526C08437B1F42ED02DD0F82E2BD052
:107F50003CD0F601EF2C8F010F5F1F4F84911BD097
:107F6000EA94F801C1F70894C11CD11CFA94CF0C13
:107F7000D11C0EC0853739F428D08EE10CD085E9AC
:107F80000AD08FE07ACF813511F488E018D01DD067
:107F900080E101D065CF982F8091C00085FFFCCF94
:107FA0009093C60008958091C00087FFFCCF809118
:107FB000C00084FD01C0A8958091C6000895E0E648
:107FC000F0E098E1908380830895EDDF803219F02E
:107FD00088E0F5DFFFCF84E1DECF1F93182FE3DFCA
:107FE0001150E9F7F2DF1F91089580E0E8DFEE27F6
:047FF000FF270994CA
:027FFE00040479
:00000001FF
